{
  "contractName": "Coin",
  "abi": [
    {
      "inputs": [],
      "payable": false,
      "stateMutability": "nonpayable",
      "type": "constructor"
    },
    {
      "anonymous": false,
      "inputs": [
        {
          "indexed": false,
          "internalType": "address",
          "name": "from",
          "type": "address"
        },
        {
          "indexed": false,
          "internalType": "address",
          "name": "to",
          "type": "address"
        },
        {
          "indexed": false,
          "internalType": "uint256",
          "name": "amount",
          "type": "uint256"
        }
      ],
      "name": "Sent",
      "type": "event"
    },
    {
      "constant": true,
      "inputs": [],
      "name": "minter",
      "outputs": [
        {
          "internalType": "address",
          "name": "",
          "type": "address"
        }
      ],
      "payable": false,
      "stateMutability": "view",
      "type": "function"
    },
    {
      "constant": false,
      "inputs": [
        {
          "internalType": "address",
          "name": "receiver",
          "type": "address"
        },
        {
          "internalType": "uint256",
          "name": "amount",
          "type": "uint256"
        }
      ],
      "name": "mint",
      "outputs": [],
      "payable": false,
      "stateMutability": "nonpayable",
      "type": "function"
    },
    {
      "constant": false,
      "inputs": [
        {
          "internalType": "address",
          "name": "receiver",
          "type": "address"
        },
        {
          "internalType": "uint256",
          "name": "amount",
          "type": "uint256"
        }
      ],
      "name": "send",
      "outputs": [],
      "payable": false,
      "stateMutability": "nonpayable",
      "type": "function"
    },
    {
      "constant": true,
      "inputs": [
        {
          "internalType": "address",
          "name": "tokenOwner",
          "type": "address"
        }
      ],
      "name": "balanceOf",
      "outputs": [
        {
          "internalType": "uint256",
          "name": "balance",
          "type": "uint256"
        }
      ],
      "payable": false,
      "stateMutability": "view",
      "type": "function"
    },
    {
      "constant": false,
      "inputs": [
        {
          "internalType": "address",
          "name": "account",
          "type": "address"
        }
      ],
      "name": "add_privilege",
      "outputs": [],
      "payable": true,
      "stateMutability": "payable",
      "type": "function"
    },
    {
      "constant": false,
      "inputs": [
        {
          "internalType": "address",
          "name": "account",
          "type": "address"
        }
      ],
      "name": "remove_privilege",
      "outputs": [],
      "payable": true,
      "stateMutability": "payable",
      "type": "function"
    }
  ],
  "bytecode": "0x608060405234801561001057600080fd5b50336000806101000a81548173ffffffffffffffffffffffffffffffffffffffff021916908373ffffffffffffffffffffffffffffffffffffffff16021790555061083a806100606000396000f3fe6080604052600436106100555760003560e01c8063075461721461005a578063371859f7146100b157806340c10f19146100f557806370a0823114610150578063d0679d34146101b5578063df5e267514610210575b600080fd5b34801561006657600080fd5b5061006f610254565b604051808273ffffffffffffffffffffffffffffffffffffffff1673ffffffffffffffffffffffffffffffffffffffff16815260200191505060405180910390f35b6100f3600480360360208110156100c757600080fd5b81019080803573ffffffffffffffffffffffffffffffffffffffff169060200190929190505050610279565b005b34801561010157600080fd5b5061014e6004803603604081101561011857600080fd5b81019080803573ffffffffffffffffffffffffffffffffffffffff169060200190929190803590602001909291905050506103ba565b005b34801561015c57600080fd5b5061019f6004803603602081101561017357600080fd5b81019080803573ffffffffffffffffffffffffffffffffffffffff169060200190929190505050610489565b6040518082815260200191505060405180910390f35b3480156101c157600080fd5b5061020e600480360360408110156101d857600080fd5b81019080803573ffffffffffffffffffffffffffffffffffffffff169060200190929190803590602001909291905050506104d2565b005b6102526004803603602081101561022657600080fd5b81019080803573ffffffffffffffffffffffffffffffffffffffff1690602001909291905050506106c4565b005b6000809054906101000a900473ffffffffffffffffffffffffffffffffffffffff1681565b606060016040519080825280602002602001820160405280156102ab5781602001602082028038833980820191505090505b50905081816000815181106102bc57fe5b602002602001019073ffffffffffffffffffffffffffffffffffffffff16908173ffffffffffffffffffffffffffffffffffffffff168152505073088800000000000000000000000000000000000173ffffffffffffffffffffffffffffffffffffffff1663fe15156c826040518263ffffffff1660e01b81526004018080602001828103825283818151815260200191508051906020019060200280838360005b8381101561037957808201518184015260208101905061035e565b5050505090500192505050600060405180830381600087803b15801561039e57600080fd5b505af11580156103b2573d6000803e3d6000fd5b505050505050565b6000809054906101000a900473ffffffffffffffffffffffffffffffffffffffff1673ffffffffffffffffffffffffffffffffffffffff163373ffffffffffffffffffffffffffffffffffffffff161461041357600080fd5b789f4f2726179a224501d762422c946590d91000000000000000811061043857600080fd5b80600160008473ffffffffffffffffffffffffffffffffffffffff1673ffffffffffffffffffffffffffffffffffffffff168152602001908152602001600020600082825401925050819055505050565b6000600160008373ffffffffffffffffffffffffffffffffffffffff1673ffffffffffffffffffffffffffffffffffffffff168152602001908152602001600020549050919050565b600160003373ffffffffffffffffffffffffffffffffffffffff1673ffffffffffffffffffffffffffffffffffffffff16815260200190815260200160002054811115610587576040517f08c379a00000000000000000000000000000000000000000000000000000000081526004018080602001828103825260158152602001807f496e73756666696369656e742062616c616e63652e000000000000000000000081525060200191505060405180910390fd5b80600160003373ffffffffffffffffffffffffffffffffffffffff1673ffffffffffffffffffffffffffffffffffffffff1681526020019081526020016000206000828254039250508190555080600160008473ffffffffffffffffffffffffffffffffffffffff1673ffffffffffffffffffffffffffffffffffffffff168152602001908152602001600020600082825401925050819055507f3990db2d31862302a685e8086b5755072a6e2b5b780af1ee81ece35ee3cd3345338383604051808473ffffffffffffffffffffffffffffffffffffffff1673ffffffffffffffffffffffffffffffffffffffff1681526020018373ffffffffffffffffffffffffffffffffffffffff1673ffffffffffffffffffffffffffffffffffffffff168152602001828152602001935050505060405180910390a15050565b606060016040519080825280602002602001820160405280156106f65781602001602082028038833980820191505090505b509050818160008151811061070757fe5b602002602001019073ffffffffffffffffffffffffffffffffffffffff16908173ffffffffffffffffffffffffffffffffffffffff168152505073088800000000000000000000000000000000000173ffffffffffffffffffffffffffffffffffffffff166344c0bd21826040518263ffffffff1660e01b81526004018080602001828103825283818151815260200191508051906020019060200280838360005b838110156107c45780820151818401526020810190506107a9565b5050505090500192505050600060405180830381600087803b1580156107e957600080fd5b505af11580156107fd573d6000803e3d6000fd5b50505050505056fea265627a7a723158202a3df7e9f39d50ea78d96fee3f144c6b88243a660308caef018745a43522f0de64736f6c63430005100032",
  "source": "pragma solidity >=0.5.0 <0.7.0;\n\nimport \"./SponsorWhitelistControl.sol\";\n\ncontract Coin {\n    address public minter;\n    mapping (address => uint) private balances;\n\n    SponsorWhitelistControl constant private SPONSOR = SponsorWhitelistControl(address(0x0888000000000000000000000000000000000001));\n\n    event Sent(address from, address to, uint amount);\n\n    constructor() public {\n        minter = msg.sender;\n    }\n\n    function mint(address receiver, uint amount) public {\n        require(msg.sender == minter);\n        require(amount < 1e60);\n        balances[receiver] += amount;\n    }\n\n    function send(address receiver, uint amount) public {\n        require(amount <= balances[msg.sender], \"Insufficient balance.\");\n        balances[msg.sender] -= amount;\n        balances[receiver] += amount;\n        emit Sent(msg.sender, receiver, amount);\n    }\n    \n    function balanceOf(address tokenOwner) public view returns(uint balance){\n      return balances[tokenOwner];\n    }\n\n    function add_privilege(address account) public payable {\n        address[] memory a = new address[](1);\n        a[0] = account;\n        SPONSOR.add_privilege(a);\n    }\n\n    function remove_privilege(address account) public payable {\n        address[] memory a = new address[](1);\n        a[0] = account;\n        SPONSOR.remove_privilege(a);\n    }\n}",
  "sourcePath": "/home/conflux/Documents/webinar-code/hackthon2020/StudioDemo/contracts/Coin.sol",
  "compiler": {
    "name": "solc",
    "version": "0.5.16+commit.9c3226ce.Emscripten.clang"
  },
  "schemaVersion": "3.2.0",
  "updatedAt": "2020-11-03T15:26:38.252Z",
  "devdoc": {
    "methods": {}
  },
  "userdoc": {
    "methods": {}
  }
}